{
  "_format": "hh-sol-artifact-1",
  "contractName": "HealthID",
  "sourceName": "contracts/HealthID.sol",
  "abi": [
    {
      "inputs": [
        {
          "internalType": "string",
          "name": "_name",
          "type": "string"
        },
        {
          "internalType": "string",
          "name": "_healthID",
          "type": "string"
        },
        {
          "internalType": "string",
          "name": "_phrNumber",
          "type": "string"
        },
        {
          "internalType": "string",
          "name": "_dob",
          "type": "string"
        },
        {
          "internalType": "string",
          "name": "_gender",
          "type": "string"
        },
        {
          "internalType": "string",
          "name": "_mobile",
          "type": "string"
        }
      ],
      "name": "addHealthData",
      "outputs": [],
      "stateMutability": "nonpayable",
      "type": "function"
    },
    {
      "inputs": [],
      "name": "getHealthData",
      "outputs": [
        {
          "components": [
            {
              "internalType": "string",
              "name": "name",
              "type": "string"
            },
            {
              "internalType": "string",
              "name": "healthID",
              "type": "string"
            },
            {
              "internalType": "string",
              "name": "phrNumber",
              "type": "string"
            },
            {
              "internalType": "string",
              "name": "dob",
              "type": "string"
            },
            {
              "internalType": "string",
              "name": "gender",
              "type": "string"
            },
            {
              "internalType": "string",
              "name": "mobile",
              "type": "string"
            },
            {
              "internalType": "bool",
              "name": "isEncrypted",
              "type": "bool"
            }
          ],
          "internalType": "struct HealthID.HealthData",
          "name": "",
          "type": "tuple"
        }
      ],
      "stateMutability": "view",
      "type": "function"
    }
  ],
  "bytecode": "0x608060405234801561001057600080fd5b50610af3806100206000396000f3fe608060405234801561001057600080fd5b50600436106100365760003560e01c806302f1b23d1461003b578063919932d214610057575b600080fd5b610055600480360381019061005091906106e9565b610075565b005b61005f6101c2565b60405161006c9190610909565b60405180910390f35b6040518060e00160405280878152602001868152602001858152602001848152602001838152602001828152602001600115158152506000803373ffffffffffffffffffffffffffffffffffffffff1673ffffffffffffffffffffffffffffffffffffffff168152602001908152602001600020600082015181600001908051906020019061010592919061059f565b50602082015181600101908051906020019061012292919061059f565b50604082015181600201908051906020019061013f92919061059f565b50606082015181600301908051906020019061015c92919061059f565b50608082015181600401908051906020019061017992919061059f565b5060a082015181600501908051906020019061019692919061059f565b5060c08201518160060160006101000a81548160ff021916908315150217905550905050505050505050565b6101ca610625565b6000803373ffffffffffffffffffffffffffffffffffffffff1673ffffffffffffffffffffffffffffffffffffffff1681526020019081526020016000206040518060e0016040529081600082018054610223906109eb565b80601f016020809104026020016040519081016040528092919081815260200182805461024f906109eb565b801561029c5780601f106102715761010080835404028352916020019161029c565b820191906000526020600020905b81548152906001019060200180831161027f57829003601f168201915b505050505081526020016001820180546102b5906109eb565b80601f01602080910402602001604051908101604052809291908181526020018280546102e1906109eb565b801561032e5780601f106103035761010080835404028352916020019161032e565b820191906000526020600020905b81548152906001019060200180831161031157829003601f168201915b50505050508152602001600282018054610347906109eb565b80601f0160208091040260200160405190810160405280929190818152602001828054610373906109eb565b80156103c05780601f10610395576101008083540402835291602001916103c0565b820191906000526020600020905b8154815290600101906020018083116103a357829003601f168201915b505050505081526020016003820180546103d9906109eb565b80601f0160208091040260200160405190810160405280929190818152602001828054610405906109eb565b80156104525780601f1061042757610100808354040283529160200191610452565b820191906000526020600020905b81548152906001019060200180831161043557829003601f168201915b5050505050815260200160048201805461046b906109eb565b80601f0160208091040260200160405190810160405280929190818152602001828054610497906109eb565b80156104e45780601f106104b9576101008083540402835291602001916104e4565b820191906000526020600020905b8154815290600101906020018083116104c757829003601f168201915b505050505081526020016005820180546104fd906109eb565b80601f0160208091040260200160405190810160405280929190818152602001828054610529906109eb565b80156105765780601f1061054b57610100808354040283529160200191610576565b820191906000526020600020905b81548152906001019060200180831161055957829003601f168201915b505050505081526020016006820160009054906101000a900460ff161515151581525050905090565b8280546105ab906109eb565b90600052602060002090601f0160209004810192826105cd5760008555610614565b82601f106105e657805160ff1916838001178555610614565b82800160010185558215610614579182015b828111156106135782518255916020019190600101906105f8565b5b5090506106219190610664565b5090565b6040518060e001604052806060815260200160608152602001606081526020016060815260200160608152602001606081526020016000151581525090565b5b8082111561067d576000816000905550600101610665565b5090565b600061069461068f84610950565b61092b565b9050828152602081018484840111156106ac57600080fd5b6106b78482856109a9565b509392505050565b600082601f8301126106d057600080fd5b81356106e0848260208601610681565b91505092915050565b60008060008060008060c0878903121561070257600080fd5b600087013567ffffffffffffffff81111561071c57600080fd5b61072889828a016106bf565b965050602087013567ffffffffffffffff81111561074557600080fd5b61075189828a016106bf565b955050604087013567ffffffffffffffff81111561076e57600080fd5b61077a89828a016106bf565b945050606087013567ffffffffffffffff81111561079757600080fd5b6107a389828a016106bf565b935050608087013567ffffffffffffffff8111156107c057600080fd5b6107cc89828a016106bf565b92505060a087013567ffffffffffffffff8111156107e957600080fd5b6107f589828a016106bf565b9150509295509295509295565b61080b8161099d565b82525050565b600061081c82610981565b610826818561098c565b93506108368185602086016109b8565b61083f81610aac565b840191505092915050565b600060e08301600083015184820360008601526108678282610811565b915050602083015184820360208601526108818282610811565b9150506040830151848203604086015261089b8282610811565b915050606083015184820360608601526108b58282610811565b915050608083015184820360808601526108cf8282610811565b91505060a083015184820360a08601526108e98282610811565b91505060c08301516108fe60c0860182610802565b508091505092915050565b60006020820190508181036000830152610923818461084a565b905092915050565b6000610935610946565b90506109418282610a1d565b919050565b6000604051905090565b600067ffffffffffffffff82111561096b5761096a610a7d565b5b61097482610aac565b9050602081019050919050565b600081519050919050565b600082825260208201905092915050565b60008115159050919050565b82818337600083830152505050565b60005b838110156109d65780820151818401526020810190506109bb565b838111156109e5576000848401525b50505050565b60006002820490506001821680610a0357607f821691505b60208210811415610a1757610a16610a4e565b5b50919050565b610a2682610aac565b810181811067ffffffffffffffff82111715610a4557610a44610a7d565b5b80604052505050565b7f4e487b7100000000000000000000000000000000000000000000000000000000600052602260045260246000fd5b7f4e487b7100000000000000000000000000000000000000000000000000000000600052604160045260246000fd5b6000601f19601f830116905091905056fea2646970667358221220ce4b0a5a0b965c283f0e705f97bcca56c2cc82094013ccfe22596a3abed8c9cf64736f6c63430008020033",
  "linkReferences": {},
  "deployedLinkReferences": {}
}